:020000040800F2
:100000009806002041020008490200084B0200083F
:100010004D0200084F0200085102000800000000D5
:100020000000000000000000000000005302000873
:10003000550200080000000057020008451600089D
:100040005B0200085B0200085B0200085B0200081C
:100050005B0200085B0200085B0200085B0200080C
:100060005B0200085B0200085B0200085B020008FC
:100070005B0200085B0200085B0200085B020008EC
:100080005B0200085B0200085B0200085B020008DC
:100090005B0200085B0200085B0200085B020008CC
:1000A0005B0200085B0200085B0200085B020008BC
:1000B0005B0200085B0200085B0200085B020008AC
:1000C0005B0200085B0200085B0200085B0200089C
:1000D0005B0200085B020008B91600085B0200081A
:1000E0005B0200085B0200085B0200085B0200087C
:1000F0005B0200085B0200085B0200085B0200086C
:100100005B0200085B0200085B0200085B0200085B
:100110005B0200085B0200085B0200085B0200084B
:100120005B0200085B0200085B0200085B0200083B
:100130005B0200085B0200085B0200085B0200082B
:100140005B0200085B0200085B0200085B0200081B
:100150005B0200085B0200085B0200085B0200080B
:100160005B0200085B0200085B0200085B020008FB
:100170005B0200085B0200085B0200080000000050
:100180005B0200085B02000800F002F800F049F88A
:100190000AA090E8000C82448344AAF10107DA45E2
:1001A00001D100F03EF8AFF2090EBAE80F0013F0EB
:1001B000010F18BFFB1A43F001031847401D000050
:1001C000601D0000103A24BF78C878C1FAD85207E1
:1001D00024BF30C830C144BF04680C6070470000C1
:1001E0000023002400250026103A28BF78C1FBD840
:1001F000520728BF30C148BF0B607047662901F025
:100200002886002070471FB501F019FE00F018FB8A
:1002100004000020002101F049FCE0601FBD10B582
:1002200010BD00F00DFC1146FFF7EDFF01F0E8FBFB
:1002300000F02BFC03B4FFF7F2FF03BC00F06EFCF0
:100240000948804709480047FEE7FEE7FEE7FEE76A
:10025000FEE7FEE7FEE7FEE7FEE7FEE704480549A6
:10026000054A064B70470000551600088901000832
:100270009800002098060020980200209802002094
:100280000FB41CB5074B06AA7B446946009005983D
:1002900000F0BDFA0020694600F0CCFA1CBC5DF805
:1002A00014FB0000A90500002DE9F05F8946044613
:1002B0004FF0000ADFF824B1FB44C0F820A020462C
:1002C000E168884700287DD0252806D0D4E901219F
:1002D0009047206A401C2062F1E700255F462046D7
:1002E000E16888472028064607DB312E05D2B81979
:1002F00010F8200C08B10543F1E7A80701D525F057
:100300000405C4F81CA00027C4F818A02A2E09D0A0
:10031000304601F0D5FA38B304EB8708303EC8F810
:10032000186019E059F8041B204604EB870291611C
:10033000E1688847012F064618D1E069002820DAD5
:1003400025F020051DE0D8F8180000EB800006EB32
:1003500040003038C8F818002046E1688847064653
:1003600001F0AEFA0028EED1012F0AD02E2E08D1CE
:100370002046E16888477F1C0646022F45F020058D
:10038000C4DBA069002803DA404245F00105A06102
:10039000E80701D025F01005A6B1A6F14100192803
:1003A00002D8203645F400654A463146204625608D
:1003B0004D46FFF723FF60B1012807D0ED1D25F062
:1003C000070000E007E000F1080978E705F10409FB
:1003D00075E730467AE7206ABDE8F09F9A1B000077
:1003E00070477047704770472DE9FF4F0C461E4617
:1003F0004FF0FF378BB0D2E90001DDF860800A9042
:100400008A46C1F30A5505B93D46002108464FF01A
:100410000000BAF1000F00F4400005DA00EB8000A4
:100420004FF4400101EA50004FEA9059B9F1010F31
:1004300000DDB9460A9850EA4A000ED044F6105042
:10044000A5F2FF3545432F14B8F1000F1ED07542B9
:10045000291E1EDDC9F100021CE0B8F1010F4FF0AA
:10046000000001D0302103E0F24305E02154401C9C
:10047000B042FBDB30460022002121540B99C1F829
:100480000880C1E900200FB0BDE8F08FBD1B6D1CD6
:10049000DEE74A4600DA694206A800F05BFA06ABDE
:1004A00093E8070003AB83E8070050460A9900F081
:1004B0003CFB8DE80700A0F500501F380090039822
:1004C000002D0ADD42F21F014A460844002303A919
:1004D0000390684600F0A5FD09E0A0F500504A46EB
:1004E0001F38002303A90390684600F0AFFD8DE894
:1004F00007000004000C03D04FF0FF30410800E07B
:100500001046B8F1000F03D00022009215461EE0FD
:10051000751E05D400F098F9303262556D1EF9D57C
:10052000B3460122084302D000227F1C04E0207859
:10053000302801D100227F1E002A099784D01DE0B7
:10054000112D07DA00F080F9303262556D1C50EA47
:100550000102F5D1084302D00098C8B10EE0002195
:10056000681E05E0235C625C63542254401E491CF3
:100570008142F7DBAB46A81B401E0990002004F81F
:100580000B000B98099AC0F80880C0E9002B7AE7A5
:1005900011264FF0000857E72DE9F04F8846044632
:1005A000D21D22F0070191B0D1E90001CDE90A0185
:1005B00001F06EF902460B98C00F01D02D2007E024
:1005C0002068810701D52B2002E0202101EAC0002C
:1005D000032A099001D0072A05DB0346414620463D
:1005E00000F078F90BE12078800601D5E06900E0A1
:1005F0000620B8F1650F814606D0B8F1660F18D015
:10060000B8F1670F70D131E00020B9F1110F0090FF
:1006100001DB112301E009F101030AAA01A90CA8D9
:10062000FFF7E2FEDDE90C70002609F101058346C3
:1006300047E001204B4600904FF000470AAA01A96D
:100640000CA8FFF7D1FEDDE90DB00C995D46002640
:1006500010B909F101000D18B9EB050003D4C0F180
:10066000FF3609F10105A5EB09002BE0B9F1010FF7
:1006700001DA4FF001090020B9F1110F009048464E
:1006800001DD112300E003460AAA01A90CA8FFF727
:10069000ABFEDDE90C704D4600268346207800074E
:1006A0000AD4AB4500DA5D4601A8012D04DD4119ED
:1006B00011F8011C302907D04F4502DA17F1040F59
:1006C00004DA012082460FE06D1EEEE7002F02DC07
:1006D000ED1B3E4403E0781CA84200DD7D1CB81BE6
:1006E00000F1010A4FF000472078000703D4AA4523
:1006F00001DB4FF0FF3A0021B7F1004F0DF1430845
:100700008DF8431024D002202B23002F01DA7F42E2
:100710002D230A21021EA0F1010000DC5FB197FB2E
:10072000F1FC97FBF1F201FB1C7C17460CF1300C3D
:1007300008F801CDEEE7A8F1010003702188090552
:1007400001D5452100E06521A0F1010800F8011C58
:1007500009980FA9A1EB0807FF1D00B1012041195D
:1007600001EBEA70A1693844081A401EA0612078A4
:10077000C00602D42046AFF30080099828B1D4E91E
:1007800001219047206A401C20622078C00622D5B3
:100790002046AFF300801EE0002E04DBB34502DDEF
:1007A00001A8805D00E03020D4E901219047206A53
:1007B000401C2062761CAAF101005FEA000A0AD1FF
:1007C00000F03EF8C0680168405CD4E90121904720
:1007D000206A401C2062281EA5F10105DCDC07E030
:1007E000D4E9012118F8010B9047206A401C2062CF
:1007F000381EA7F10107F3DC2046AFF30080032089
:1008000011B041E601694A1C02610878704700B5E1
:100810008FB0CDE901310021059105497944CDE939
:10082000031011466846FFF73FFD0FB000BD000002
:10083000E5FFFFFF0A6802F8010B0A60704700003D
:10084000004870475400002030B5B0F10A024FEA6A
:10085000900E71F100034EEA817EB0EB0E0061EB69
:1008600091014FEA101E4EEA017E10EB0E0041EBA3
:1008700011114FEA102E4EEA016E10EB0E0041EB03
:1008800011214FEA104E4EEA014E10EB0E0041EBE3
:100890001141401841F100014FEAD00040EA417097
:1008A0004FEAD10110EB80054FEA810444EA9074CD
:1008B00044EB01046D1944EB0404521BA3414FF0B7
:1008C000000348BF0A3200D530BD401C41F1000191
:1008D00030BD00002DE9F0411F46044603260168A3
:1008E000072A01F4006004DB08B116A505E016A58F
:1008F00003E008B115A500E015A521F01000206067
:10090000A069C01EA0610FB1401EA0612046AFF3D8
:1009100000804FB1D4E9012138469047206A401C3D
:100920002062C01C206206E0206AFAE7D4E90121B7
:1009300015F8010B9047761EF8D22046AFF30080E1
:10094000BDE8F0814E414E006E616E00494E46009A
:10095000696E66002DE9F047814616468AB0354833
:1009600078440DC88DE80D0032487844801C03ACF3
:100970000DC884E80D0041F69B300844372190FBF8
:10098000F1F290FBF1F5A5F1800501FB12041B3C8F
:1009900002D56442012000E00020DFF898A08046E4
:1009A0000027FA44AAF1BE0A0EE0E0070AD0324658
:1009B000684607EB470101230AEB810100F046FB83
:1009C0008DE8070064107F1C002CEED1194F7F4486
:1009D000AE3F19E0E80715D007EB04100DF1180A37
:1009E00090E80E008AE80E00C068F04201D1981924
:1009F00008903246012306A903A800F027FB03ABA9
:100A000083E807006D10641C002DE3D14FF0010353
:100A100032466946B8F1000F03A802D000F001FB8E
:100A200001E000F013FBC9E90001C9F808200AB091
:100A3000BDE8F087801500000048704734000020B2
:100A40007546FFF7F9FFAE4605006946534620F0AC
:100A50000700854618B020B5FFF700FCBDE8204030
:100A60004FF000064FF000074FF000084FF0000B6A
:100A700021F00701AC46ACE8C009ACE8C009ACE81D
:100A8000C009ACE8C0098D46704710B50446AFF305
:100A900000802046BDE81040FFF7CCBB4FF0013C82
:100AA00050F8042B51F8043B9A4221D1A2EB0C03DD
:100AB000934313EACC1317D150F8042B51F8043B9D
:100AC0009A4215D1A2EB0C03934313EACC130BD13A
:100AD00050F8042B51F8043B9A4209D1A2EB0C03C5
:100AE000934313EACC13DBD04FF00000704700BFF4
:100AF000D01A01BAB1FA81F101F0180122FA01F01D
:100B0000CB40C1F12001DBB2C0B2C01A2CFA01F314
:100B1000D11A914311EAC311E6D170470149182057
:100B2000ABBEFEE72600020070475FEA400C08BF3C
:100B300091F0000F4FEA8C234FEAC12243EA515152
:100B40004FEA1C5018BF00F5F0404FEA300018BFC4
:100B500041F000415FEA6C5C00F02980BCF1FF3F8E
:100B600008BF40F080407047130C06BF12044FF0DE
:100B7000100C4FF0000C130E04BF12020CF1080C05
:100B8000130F04BF12010CF1040C930F04BF920069
:100B90000CF1020CD30F04BF52000CF1010C1146F2
:100BA0004FF00002A0F11F00A0EB0C00704711F005
:100BB000004F08BF704731F000413FF4D5AF0B0C38
:100BC00006BF09044FF0100C4FF0000C0B0E04BFD1
:100BD00009020CF1080C0B0F04BF09010CF1040C05
:100BE0008B0F04BF89000CF1020CCB0F04BF49002E
:100BF0000CF1010CCCF12003A0EB0C0022FA03F362
:100C000002FA0CF241EA030100F10100704720F002
:100C10007F4C80EA030023F07F47ACEB070303F52A
:100C20007C5300F0004003F1FF032DE980494FEAB7
:100C3000154B09B44FEA144325EA0B4E24EA034846
:100C40000FF2042606EB132749083E785FEA3202CA
:100C500003FB0667C7F5000707FB06F64FEA5437A4
:100C60004FEAD64606F1020607FB066CCCF1005CA3
:100C70004FEA1C472CEA074C07FB06F40CFB06F571
:100C800004EB15464FEA961634BF00204FF00040A3
:100C90004FEAD13706FB07FC4FEA1C4C0CFB0BF765
:100CA000D21B03FB0CF761EB07010CFB0EF7B0EB5B
:100CB000074072EB17420CFB08F734BFA2EB074268
:100CC000B2EB074261EB17414FEA0C444FEA910740
:100CD00006FB07FC4FEA1C4C0CFB0BF7B0EBC740C4
:100CE00072EB573203FB0CF734BFA2EBC742B2EBF7
:100CF000C74261EB57310CFB0EF7B0EBC70072EB4C
:100D000057720CFB08F734BFA2EBC702B2EBC70265
:100D100061EB5771039F4FEA816141EA921104EB45
:100D2000CC044FEAD1374FEA826206FB07FC42EA65
:100D300090124FEA80604FEA1C4C0CFB0BF7D21B61
:100D400003FB0CF761EB07010CFB0EF7B0EB074060
:100D500072EB17420CFB08F734BFA2EB0742B2EB71
:100D6000074261EB17414FEA8C554FEA910704EBBC
:100D70009C2406FB07FC4FEA1C4C0CFB0BF7B0EB6A
:100D8000C74072EB573203FB0CF734BFA2EBC742EC
:100D9000B2EBC74261EB57310CFB0EF7B0EBC7006B
:100DA00072EB57720CFB08F734BFA2EBC702B2EB31
:100DB000C70261EB577115EB4C254FEA816141EA9F
:100DC00092114FEA82624FEAD13742EA901206FB53
:100DD00007FC44F100044FEA80604FEA1C4C0CFB16
:100DE0000BF7D21B03FB0CF761EB07010CFB0EF7B3
:100DF000B0EB074072EB17420CFB08F734BFA2EBD5
:100E00000742B2EB074261EB174115EB1C154FEAA5
:100E1000813141EA92414FEA823242EA90424FEAFE
:100E200080304FEA0C7644F1000448EA03434EEA6E
:100E30000B484FF0000EB2EB080C71EB030724BF18
:100E4000624639464EEB0E0E4FF0000B0018524131
:100E500049414BEB0B0BB2EB080C71EB03077BF139
:100E6000000B24BF624639464EEB0E0E4FF0000BCE
:100E70000018524149414BEB0B0BB2EB080C71EBE4
:100E800003077BF1000B24BF624639464EEB0E0E82
:100E900051EA020718BF46F0010616EB0E7655F12F
:100EA000000254F1000103D5BDE88901BDE80088C6
:100EB000BDE88901BDE80048B619524141EB010186
:100EC000A3F10103704780807F7E7D7C7B7A7978F7
:100ED000777676757473727171706F6E6E6D6C6CFF
:100EE0006B6A6A69686867666665646463636261A1
:100EF0006160605F5F5E5E5D5D5C5C5B5B5A5A5922
:100F0000595858575756565555555454535352528D
:100F10005251515050504F4F4F4E4E4D4D4D4C4CE5
:100F20004C4B4B4B4A4A4A4949494848484747472E
:100F3000474646464545454444444443434343426B
:100F4000424242414141002B9C4630D477002BD095
:100F50001CB54FEA370703B44FF010004FF01001F3
:100F6000BAF1000F06D0BCF1000FDCBF40F0080062
:100F700040F008014FF000000FBCBDE810400BF13D
:100F8000010BBBF1010F08BF5FEA170722BF12F187
:100F9000010211F101014FF0004143F1000300F0A3
:100FA000004043EA00007047F9D35708D0E746EA0B
:100FB000064613F1400F4FEA16461FDD13F1200FCE
:100FC000DFBF16430A46002120335B42BED0C3F187
:100FD000200746EA064602FA07F74FEA164646EAAF
:100FE0000706C3F1200722FA03F201FA07F721FAF4
:100FF00003F14FF0000342EA0702A7E746EA0206C0
:1010000046EA06464FEA164646EA0106BCBF46EAED
:101010000646360C4FF000034FF000024FF000017F
:1010200094E72DE9804C9A46934670B491E83800D5
:1010300007C831EA400C48BF34EA430C03D5FFF738
:10104000E6FDFFF780FFF0BCBDE8008C2DE9804C89
:101050009A46934670B491E8380007C810F0804F64
:1010600008BF13F0804F03D100F005F8FFF76BFFC6
:10107000F0BCBDE8008C20F07F4780EA030023F03D
:101080007F4C07EB0C03A3F57C5300F00040A3F169
:10109000FE0392F0000F00F0B38095F0000F00F017
:1010A00077802DE901494FEA11404FEA144621EAC1
:1010B000004800FB06FC24EA064708FB06F607FB8F
:1010C00008F800FB07F718EB06484CEB164C4FEA04
:1010D000124B18EB07484FEA15464CEB174022EA33
:1010E0000B4E0BFB06FC25EA06470EFB06F607FB3C
:1010F0000EFE0BFB07F71EEB064E4CEB164C4FF0AB
:1011000000061EEB074E4CEB174B18EB0B0840F19B
:10111000000018EB0E0B58EB000840F100008F1A8E
:101120004FF000013CBFC943661B14BFB5EB040C74
:1011300000213CBFC943F61B4FEA17444EEA8E0E0E
:1011400027EA04454FEA1C4704FB07622CEA074CD8
:1011500005FB07F70CFB05F604FB0CFC16EB07463A
:1011600042EB174216EB0C4642EB1C421BEB060609
:1011700058EB0202414146EA9E0601D5BDE80189CD
:10118000B619524141EB0101A3F10103BDE8018908
:101190004FEA14454FEA114724EA054621EA074C75
:1011A00005FB07F406FB07F70CFB06F105FB0CFC3F
:1011B00011EB074144EB17444FEA124711EB0C4186
:1011C00044EB1C4422EA074C05FB07F206FB07F739
:1011D0000CFB06F605FB0CFC16EB074642EB174230
:1011E00016EB0C4642EB1C456A1854F1000148BF4F
:1011F0007047B619524141EB0101A3F10103704759
:1012000095F0000F37D04FEA11424FEA144721EA18
:10121000024624EA074C02FB07F106FB07F70CFB2A
:1012200006F402FB0CFC14EB074441EB17414FEAB8
:10123000154714EB0C4441EB1C4125EA074C02FB1B
:1012400007F506FB07F70CFB06F602FB0CFC16EB9A
:10125000074645EB174516EB0C4645EB1C421219A9
:1012600051F1000148BF7047B619524141EB0101ED
:10127000A3F1010370474FEA14454FEA114724EAEE
:10128000054621EA074C05FB07F106FB07F70CFBB7
:1012900006F24FF0000605FB0CFC12EB074241EB97
:1012A000174112EB0C4251EB1C4148BF704792189A
:1012B00041EB0101A3F101037047000070B5034643
:1012C0000C4619022143084D002209E0C2F117061D
:1012D0000120B040084000B169406D08501CC2B206
:1012E000102AF3DBC8B270BD0080980003484FF0AD
:1012F000E021486188610720086170474090020042
:10130000044A116800BF034A1268521A8242FAD393
:1013100070470000080000202F48006840F00100DE
:101320002D4908600846006840F0080008602B4816
:10133000006820F00300294908600846C06840F0B2
:101340000200C8602648006840F0807024490860A8
:10135000081D006820F48050091D0860081D006801
:1013600040F00070091D08601D48006840F0806072
:101370001B490860081D006820F40050091D086022
:10138000081D006840F00060091D086014480068EE
:1013900040F0805012490860081D006820F4804029
:1013A000091D0860081D006840F00050091D086014
:1013B0000B48006840F0804009490860081D00683B
:1013C00020F40040091D0860081D006840F000403E
:1013D000091D0860704700003038024000000240DC
:1013E000000C02403248006840F0020030490860BA
:1013F0003048006840F088402E4908602D48203869
:10140000006840F400502B4920390860081D00682E
:1014100040F04000091D0860081D006840F440507D
:10142000091D086023482038006840F40040214925
:1014300020390860081D006840F08000091D086020
:10144000081D006840F44040091D0860184810302D
:10145000006840F400101649103108601648006812
:1014600040F40040144908600846006820F4004039
:101470000860081D006820F03F00091D086008464C
:10148000006840F02A0008600B481C3000686FF3C9
:101490000B0009491C310860D22008602B20091D6F
:1014A00008600548006840F0010003490860704783
:1014B00030380240200402400054004033480068A5
:1014C00040F480303149086000BF3048006800F4C3
:1014D00000300028F9D02D484030006840F080509E
:1014E0002A49403108602A48006840F48040284971
:1014F000086026480830006824490831086008461A
:10150000006840F4004008600846006840F4A050BD
:101510000860081F006820F03F00091F08600846A7
:10152000006847F6C07188431849091D08600846DD
:10153000006820F44030086016480860081F006802
:1015400040F08070091F086000BF1048006800F07C
:1015500000700028F9D040F205700F4908600B4870
:101560000830006820F00300084908310860084688
:10157000006840F00200086000BF044808300068BE
:1015800000F00C000828F8D1704700000038024035
:1015900000700040042A4000003C024009480068F6
:1015A00040F480600749086000BF064814300068B6
:1015B00000F040000028F8D0024810300068C0B2A7
:1015C000704700000054004000B50E4800680D4808
:1015D000001D00680B481438006820F48060094939
:1015E0001439086000BF0748006800F04000002878
:1015F000F9D00448001F0068C2B200F019F8104684
:1016000000BD0000145400400848006840F4807099
:101610000649086000BF05481430006800F001006A
:101620000028F8D00148143000687047005400408A
:101630000348006840F400700149086070470000EA
:101640000054004002480068401C0149086070478F
:10165000080000201448006840F470001249086037
:101660001248006840F001001049086000200F494E
:10167000083108600D4800680D4908400B490860B2
:101680000C48091D0860081F006820F48020091F0D
:101690000860002005490C3108604FF000600249E5
:1016A000803908607047000088ED00E00038024093
:1016B000FFFFF6FE1030002400B51348006800F06C
:1016C000200000B31048006820F020000E49086098
:1016D000081D0068302808D10CA000F097F80D48CC
:1016E000006820F480400B4908600748001D00682E
:1016F000312808D108A000F089F80648006840F4B5
:1017000080400449086000BD004400404F46460D3B
:101710000A000000140C02404F4E0D0A00000000A9
:101720003048006840F001002E4908602E48006AE9
:1017300040F4EE402C4908620846006840F0200062
:1017400008600846406820F0040048600846806849
:1017500040F0300088600846C06820F03000C86063
:101760000846006840F0800008600846406840F085
:10177000080048600846806840F0C000886008465D
:10178000C06820F0C000C86016481030006840F4FF
:1017900000301449103108604FF4B67013490860E6
:1017A000081D006840F00800091D08600846006830
:1017B00040F0040008600846006840F400500860EB
:1017C0000846006840F020000860262000F01F0254
:1017D000012191404209920002F1E022C2F8001179
:1017E00000BF70473038024000000240084400400B
:1017F00000BF0549096801F040010029F9D00249FC
:10180000091D0860704700000044004010B5024602
:10181000002305E019465C1CE3B2505CFFF7E8FFCB
:10182000D05C0028F6D110BD11B101290CD105E022
:10183000002202EB40020C4B1A6005E0012202EB91
:101840004002094B1A6000BF00BF00BF064A121DCC
:10185000126802F00202002AF8D0034A121D126830
:10186000014A0832126870471054004000BF07490F
:10187000096801F080010029F9D00449091F0860B6
:10188000091D09680149091D096870471454004081
:1018900003B401984100009850EAC12018BF042009
:1018A0004A0D18BF40F0010040F2FF72B2EB515FE9
:1018B00008BF40F00200012808BF052002B07047B1
:1018C00030380A2801D201207047002070470000FC
:1018D00010B52DED068B9FED120AB0EE408AE52083
:1018E00000F054F80446204600F027F941EC1A0BAA
:1018F0009FED0C0B53EC102B00F032F941EC190B5F
:1019000000F0EAF808EE100AB1EE080A38EE400AD4
:10191000B0EE408AB0EE480ABDEC068B10BD000068
:10192000000000000000000000405F3F10B52DEDFA
:10193000068B9FED120AB0EE408AE32000F026F8F5
:101940000446204600F0F9F841EC1A0B9FED0C0B11
:1019500053EC102B00F004F941EC190B00F0BCF82B
:1019600008EE100A9FED080A38EE400AB0EE408AF1
:10197000B0EE480ABDEC068B10BD00000000000070
:10198000D7A3703D0AF7653F66663B422DE9F041FB
:1019900005460024FFF738FE00214020FFF744FFF2
:1019A0002846FFF763FFFFF72FFE01214020FFF7D6
:1019B0003BFFFFF7F3FD0646FFF7F0FD0746FFF795
:1019C00003FE804647EA062441462046FFF776FCA0
:1019D00018B140F2E730BDE8F0814FF6FC7104EA3F
:1019E0000100F8E710B5FFF70FFE00214020FFF7D8
:1019F0001BFFEF20FFF73AFFFFF71AFE10BD0000B4
:101A00002DED048B82B0FFF759FDFFF785FCFFF742
:101A10006DFCFFF785FE6420FFF772FCFFF7E2FC28
:101A20006420FFF76DFCFFF7DDFF4FF49670FFF7C2
:101A300067FC25E0FFF77AFF124880ED000AFFF708
:101A400047FF114880ED000A006800F087F941EC7B
:101A5000190B0C48006800F081F941EC180B8DED72
:101A6000009B53EC182B09A10E48FEF709FC0D480A
:101A7000FFF7CCFE0C48006880F480500A490860EB
:101A8000D8E70000000000200400002054203D2082
:101A9000252E3266202048203D20252E31660D0A55
:101AA000000000000C000020140C024010B50029BA
:101AB0000AD00878002807D005487844FEF7EEFFE2
:101AC000002801D0002010BD0248784410BD00005D
:101AD000620400005A04000021F00042A2F16052AA
:101AE000B2F5801F01F0004328BFD2F17F6C0BD903
:101AF0005FEA001C43EAC20242EB507018BF704715
:101B000028BF20F001007047B2F5801FBCBF184607
:101B100070474FEA410C1CF5001F02D2084600F046
:101B200093B970B500F0C6F800000089FFF7F6BF62
:101B30004FF00040A0F580007047B0FA80F310FA33
:101B400003F10AD0C3F11D0303F580634FEA41504E
:101B50004FEA035202EBD12170474FF0000070476B
:101B6000DFF848C170B51CEA111E1EBF1CEA131530
:101B70009EEA0C0F95EA0C0F00F06F8081EA0304D7
:101B800023EA4C134EEAD47E21EA4C1141F4801131
:101B900043F48013AE44A1FB024CA0FB0365AEF1FD
:101BA0007F7E361955EB0C05A1FB034C4CF100036D
:101BB000A0FB021C16EB0C06654153F10003094221
:101BC00018BF46F0010613F4007F0BD14FEA033132
:101BD0004FEA0530340341EA155140EA16506FF0E0
:101BE00003020AE04FEAC3214FEAC520F40241EAAA
:101BF000555140EA56506FF0020202EB2E4201EBC3
:101C0000025585EACE710AD05FEA440C18BF24F071
:101C1000004450F1000041F1000120EAD47040F28C
:101C2000FE7C624500D270BDA84214BF4FF08044D4
:101C30004FF04044002E08BF0024BEF1806FA8BFC3
:101C4000A1F1C041BDE8704080F282804FF00000F9
:101C500001F1C04101F0004170479EEA0C0F0CEA0F
:101C6000131518BF95EA0C0F06D04FF0000081EA5B
:101C7000030E0EF0004170BD00F01CF88900013E1B
:101C800000F007B800F009B84FEA430C5FEA5C5C6B
:101C900008D081EA030100F05BB84FEA410C5FEA2B
:101CA0005C5CF6D14FF00000014970470000FF076F
:101CB0000000F87F0EF1020E2EF0030E5EF8046BAA
:101CC000364205D4012A43EB030515F5001F12D84F
:101CD000012841EB010C1CF5001F0CD80ED14FEA76
:101CE000D17C15F5001F0CEB4C0C0CF1020C08BF5D
:101CF0004CEBD37C04E04FF0080C01E04FEAD37CBE
:101D00000CEB4C0526FA05F606F00706B6F1040CB6
:101D100006D20EEB860CBDE870404CF0010C60471B
:101D2000DFE80CF0090B02024FF000414FF0000019
:101D3000A1F5002170BD19461046012851EB0104A0
:101D400018BFD4F5001484BF002001F0004170BD1D
:101D50000808A0F500114FEA3101704743004FEA2F
:101D6000D30C4FEA3C0C43401FBF40070CF16051BD
:101D700013F0FE4F70471CF0006F03D100200CF0F1
:101D8000004170470CF0004343EA507010B540EA40
:101D9000CC0000F00EF800BF000000924FEA0001F6
:101DA000FFF7D6BF4FF000414FF00000A1F5002132
:101DB00070470EF1020E2EF0030E5EF8044B244223
:101DC00004D44FEA4102B2F17F4F11D84FEA4003E9
:101DD000B3F17F4F0CD80ED14FEAD07CB2F17F4FD8
:101DE0000CEB4C0C0CF1020C08BF4CEBD17C04E06A
:101DF0004FF0080C01E04FEAD17C0CEB4C0324FAC5
:101E000003F404F00704B4F1040C06D20EEB840CC6
:101E1000BDE810404CF0010C6047DFE80CF007080B
:101E200002024FF00040A0F5800010BD08464200BD
:101E300018BFD2F1807288BF00F0004010BD4FF093
:101E40004070E1EE100A7047FF2141EAD050C00512
:101E50007047FEF7A1BB040000080000000000006E
:101E6000000200010000100002400000000000A07D
:101E70000000000005400000000000C80000000055
:101E80000C4000000000409C0000000019400000D1
:101E90000020BCBE0000000034400000BFC91B8E03
:101EA00000000004B5400000504BCFD06607E2CFE1
:101EB000010000006C4100003E8251AADFEEA73411
:101EC00001000000D9420000DCB5A0E23A301F97C3
:101ED000FFFFFFFFB4450000FD25A0C8E9A3C14FE7
:101EE000FFFFFFFFFF3F0000000000800000000038
:101EF000FF3F00000000008000000000381F0008C5
:101F0000000000200C000000C4010008441F00086D
:101F10000C0000208C060000E00100081C000000FE
:101F200043000000F8FFFFFF0C0000000E0000005F
:101F30000F0000002E000000000000000000000064
:041F4000000000009D
:040000050800018965
:00000001FF
