:020000040800F2
:1000000068060020290200083102000833020008B7
:10001000350200083702000839020008000000001D
:100020000000000000000000000000003B0200088B
:100030003D020008000000003F020008A50400087F
:10004000430200084302000843020008430200087C
:10005000430200084302000843020008430200086C
:10006000430200084302000843020008430200085C
:10007000430200084302000843020008430200084C
:10008000430200084302000843020008430200083C
:10009000430200084302000843020008430200082C
:1000A000430200084302000843020008430200081C
:1000B000430200084302000843020008430200080C
:1000C00043020008430200084302000843020008FC
:1000D0004302000843020008190500084302000813
:1000E00043020008430200084302000843020008DC
:1000F00043020008430200084302000843020008CC
:1001000043020008430200084302000843020008BB
:1001100043020008430200084302000843020008AB
:10012000430200084302000843020008430200089B
:10013000430200084302000843020008430200088B
:10014000430200084302000843020008430200087B
:10015000430200084302000843020008430200086B
:10016000430200084302000843020008430200085B
:100170004302000843020008430200080000000098
:10018000430200084302000800F002F800F03CF8C7
:100190000AA090E8000C82448344AAF10107DA45E2
:1001A00001D100F031F8AFF2090EBAE80F0013F0F8
:1001B000010F18BFFB1A43F0010318470C0500009C
:1001C0002C050000103A24BF78C878C1FAD852072D
:1001D00024BF30C830C144BF04680C6070470000C1
:1001E0000023002400250026103A28BF78C1FBD840
:1001F000520728BF30C148BF0B6070471FB500F0E1
:100200005DFA1FBD10B510BD00F031F81146FFF7C3
:10021000F5FF00F039FA00F04FF803B4FFF7F2FFF2
:1002200003BC00F057F80000094880470948004720
:10023000FEE7FEE7FEE7FEE7FEE7FEE7FEE7FEE796
:10024000FEE7FEE704480549054A064B70470000F3
:10025000B504000889010008680000206806002035
:10026000680200206802002070477047704775469A
:1002700000F02CF8AE4605006946534620F0070012
:10028000854618B020B5FFF7DDFFBDE820404FF0F0
:1002900000064FF000074FF000084FF0000B21F070
:1002A0000701AC46ACE8C009ACE8C009ACE8C0093D
:1002B000ACE8C0098D46704710B50446AFF3008026
:1002C0002046BDE81040FFF7A8BF00000048704777
:1002D0000400002001491820ABBEFEE72600020002
:1002E0007047000003484FF0E02148618861072013
:1002F00008617047409002002F48006840F00100FC
:100300002D4908600846006840F0080008602B4846
:10031000006820F00300294908600846C06840F0E2
:100320000200C8602648006840F0807024490860D8
:10033000081D006820F48050091D0860081D006831
:1003400040F00070091D08601D48006840F08060A2
:100350001B490860081D006820F40050091D086052
:10036000081D006840F00060091D0860144800681E
:1003700040F0805012490860081D006820F4804059
:10038000091D0860081D006840F00050091D086044
:100390000B48006840F0804009490860081D00686B
:1003A00020F40040091D0860081D006840F000406E
:1003B000091D08607047000030380240000002400C
:1003C000000C02403348006840F480303149086036
:1003D00000BF3048006800F400300028F9D02D48F4
:1003E0004030006840F080502A49403108602A4877
:1003F000006840F4804028490860264808300068BA
:100400002449083108600846006840F4004008604C
:100410000846006840F4A0500860081F006820F0FB
:100420003F00091F08600846006847F6C07188430E
:100430001849091D08600846006820F4403008602B
:1004400016480860081F006840F08070091F0860A7
:1004500000BF1048006800F000700028F9D040F29A
:1004600005700F4908600B480830006820F0030051
:100470000849083108600846006840F0020008603A
:1004800000BF04480830006800F00C000828F8D1CC
:10049000704700000038024000700040042A40000D
:1004A000003C024002480068401C01490860704757
:1004B000000000201448006840F4700012490860F1
:1004C0001248006840F001001049086000200F4900
:1004D000083108600D4800680D4908400B49086064
:1004E0000C48091D0860081F006820F48020091FBF
:1004F0000860002005490C3108604FF00060024997
:10050000803908607047000088ED00E00038024044
:10051000FFFFF6FE1030002400B51348006800F01D
:10052000200000B31048006820F020000E49086049
:10053000081D0068302808D10CA000F097F80D487D
:10054000006820F480400B4908600748001D0068DF
:10055000312808D108A000F089F80648006840F466
:1005600080400449086000BD004400404F46460DED
:100570000A000000140C02404F4E0D0A000000005B
:100580003048006840F001002E4908602E48006A9B
:1005900040F4EE402C4908620846006840F0200014
:1005A00008600846406820F00400486008468068FB
:1005B00040F0300088600846C06820F03000C86015
:1005C0000846006840F0800008600846406840F037
:1005D000080048600846806840F0C000886008460F
:1005E000C06820F0C000C86016481030006840F4B1
:1005F00000301449103108604FF4B6701349086098
:10060000081D006840F00800091D086008460068E1
:1006100040F0040008600846006840F4005008609C
:100620000846006840F020000860262000F01F0205
:10063000012191404209920002F1E022C2F800112A
:1006400000BF7047303802400000024008440040BC
:1006500000BF0549096801F040010029F9D00249AD
:10066000091D0860704700000044004010B50246B4
:10067000002305E019465C1CE3B2505CFFF7E8FF7D
:10068000D05C0028F6D110BDFFF79CFEFFF734FECA
:10069000FFF728FEFFF774FF02A0FFF7E7FF00BF98
:1006A000FEE7000053544D333246345F54455354F3
:1006B0005F55534152540D0A300000004FF0407016
:1006C000E1EE100A70470000E80600080000002074
:1006D00004000000C4010008EC060008040000202B
:0C06E00064060000E001000800000000BB
:040000050800018965
:00000001FF
